S0100000556E6962656C6C332E7372656316
S315000400006817002055B3050011AB050065B305005C
S3150004001065B3050065B3050065B30500000000007F
S3150004002000000000000000000000000065B30500A9
S3150004003065B3050000000000F5BA0900C5BB090058
S31500040040F93E0500513F0500A93F05006D05050071
S31500040050E9F10400E9F1040071D2040099D1040025
S3150004006029D20400E1D10400E5B404007D8504002E
S3150004007009860400CD840400958604007D85040069
S3150004008009860400CD840400A5970400F9940400AD
S31500040090F9940400F994040025430400FFFFFFFFCC
S315000400A0FFFFFFFFFFFFFFFFFFFFFFFFFFFFFFFF56
S315000400B0FFFFFFFFFFFFFFFFFFFFFFFFFFFFFFFF46
S315000400C0FFFFFFFFFFFFFFFFFFFFFFFFFFFFFFFF36
S315000400D0FFFFFFFFFFFFFFFFFFFFFFFFFFFFFFFF26
S31500040400FFFFFFFFFFFDFFFFFFFFFFFFFFFFFFFFF4
S31500040410FFFFFFFFFFFFFFFFFFFFFFFFFFFFFFFFE2
S31500040420FFFFFFFFFFFFFFFFFFFFFFFFFFFFFFFFD2
S31500040430FFFFFFFFFFFFFFFFFFFFFFFFFFFFFFFFC2
S31500040440FFFFFFFFFFFFFFFFFFFFFFFFFFFFFFFFB2
S31500040450FFFFFFFFFFFFFFFFFFFFFFFFFFFFFFFFA2
S31500040460FFFFFFFFFFFFFFFFFFFFFFFFFFFFFFFF92
S31500040470FFFFFFFFFFFFFFFFFFFFFFFFFFFFFFFF82
S31500040480FFFFFFFFFFFFFFFFFFFFFFFFFFFFFFFF72
S31500040490FFFFFFFFFFFFFFFFFFFFFFFFFFFFFFFF62
S315000404A0FFFFFFFFFFFFFFFFFFFFFFFFFFFFFFFF52
S315000404B0FFFFFFFFFFFFFFFFFFFFFFFFFFFFFFFF42
S315000404C0FFFFFFFFFFFFFFFFFFFFFFFFFFFFFFFF32
S315000404D0FFFFFFFFFFFFFFFFFFFFFFFFFFFFFFFF22
S315000404E0FFFFFFFFFFFFFFFFFFFFFFFFFFFFFFFF12
S315000404F0FFFFFFFFFFFFFFFFFFFFFFFFFFFFFFFF02
S3150004050068ACFE1FFA0143006CACFE1FFB014310EE
S3150004051070ACFE1FFC014320F8ACFE1F1A292B60A9
S3150004052060A2FE1F0B0006A078A2FE1F0F0006E0C5
S315000405309CA2FE1F6600150090A2FE1F6300151004
S3150004054098A2FE1F6500152094A2FE1F64001530B4
S31500040550F4ACFE1F49002810D0ACFE1F860D1420F3
S31500040560D8ACFE1F880D1440D4ACFE1F870D145062
S31500040570CCACFE1F8F111410C0ACFE1F8C111420BE
S31500040580C8ACFE1F8E111440C4ACFE1F8D1114504E
S315000405901CADFE1FAD25141010ADFE1FAA25142098
S315000405A018ADFE1FAC25144014ADFE1FAB25145028
S315000405B0A0A2FE1FC7013400200000002000010095
S315000405C02F0000002F0001000C00010011000000A4
S315000405D03000000030000100240000002400010067
S315000405E02400020024000300240004002400050063
S315000405F01300000017000000230000002100000083
S3150004060021000100070000000700010007000200A6
S3150004061007000300070004000700050007000600A2
S315000406200700070012000000440000000800000054
S315000406300B000000410000004000000040000100E3
S3150004064004000000430000002B0000002B000A00F9
S315000406502B000B002B000C002B000D002B000100BF
S315000406602B0002002B0003002B0004002B000500C6
S315000406702B0006002B0007002B0008002B000900A6
S315000406800600000006000A0006000B0006000C0027
S3150004069006000D0006000E0006000F00060001000D
S315000406A0060002000600030006000400060005001A
S315000406B006000600060007000600080006000900FA
S315000406C015000000150001001500020031000000AD
S315000406D02A0000004500000010000000030100008D
S315000406E003000000030001000F0000000D000000DD
S315000406F02D000000420000002C0000002C00010028
S315000407002C0002002C000300320000002800000028
S315000407101800000014000000140001001400020078
S31500040720140003001400040014000500140006005D
S315000407301400070014000800140009003400000027
S315000407403400010016000000160001003500000008
S3150004075036000000360001002200000033000000CD
S315000407603301000029000000FFFFFFFFFFFFFFFF2A
S31500040770FFFFFFFFFFFFFFFFFFFFFFFFFFFFFFFF7F
S31500040780FFFFFFFFFFFFFFFFFFFFFFFFFFFFFFFF6F
S31500040790FFFFFFFFFFFFFFFFFFFFFFFFFFFFFFFF5F
S315000407A0FFFFFFFFFFFFFFFFFFFFFFFFFFFFFFFF4F
S315000407B0FFFFFFFFFFFFFFFFFFFFFFFFFFFFFFFF3F
S315000407C0FFFFFFFFFFFFFFFFFFFFFFFFFFFFFFFF2F
S315000407D0FFFFFFFFFFFFFFFFFFFFFFFFFFFFFFFF1F
S315000407E0FFFFFFFFFFFFFFFFFFFFFFFFFFFFFFFF0F
S315000407F0FFFFFFFFFFFFFFFFFFFFFFFFFFFFFFFFFF
S31500040800AFB8F30000000000000000000000000084
S3150004081000000000000000000000000000000000CE
S3150004082001000000D0CE0C00FFFFFFFFFFFFFFFF1B
S315000408300000000010B5054C237833B9044B13B1FE
S315000408400448AFF300800123237010BDF899FE1FFE
S3150004085000000000E8A01600084B10B51BB10848BC
S315000408600849AFF300800848036803B910BD074B75
S31500040870002BFBD0BDE81040184700BF0000000065
S31500040880E8A01600FC99FE1FAC93FE1F00000000B2
S3150004089080B485B000AF0346FB710023FB73FB797C
S315000408A0012B04D0022B08D0002B03D008E004232C
S315000408B0FB7305E00323FB7302E00123FB7300BF14
S315000408C0FB7B18461437BD465DF8047B704700BFB2
S315000408D090B58DB000AF786039607B68FB62FB6AC7
S315000408E0D3F82C319B68BB62FB6AD3F82C311B68A6
S315000408F07B62FB6AD3F830311B683B62FB6AD3F830
S3150004090030319B68FB61FB695B68386A4FF0FF31E5
S31500040910984703467B837B8B002B04D0FB6A783392
S31500040920184659F0F3FA3B6800221A723B68002213
S315000409309A803B680022DA800323FB72BB6ADC6878
S3150004094007F10B03786A194601220123A0470346DF
S315000409507B837B8B002B05D0BB6A1B69786A98471F
S3150004096064236EE0BB6A9C6807F10C03786A194637
S3150004097004220023A04703467B837B8B002B05D0F0
S31500040980BB6A1B69786A984764235AE03B7BC3F3C6
S315000409908113DBB21846FFF77BFF03467B763B7B6E
S315000409A0C3F30303DBB21B029AB27B7B9BB21343F2
S315000409B0FB82BB7BC3F30303DBB21B029AB2FB7B52
S315000409C09BB21343BB827B7E052B29D801A252F826
S315000409D023F000BFED090400F5090400F50904003D
S315000409E0ED090400ED090400ED0904003B687A7E74
S315000409F01A7215E0FB6A1B8BB7F916201BB29A42D2
S31500040A0006D1FB6A5B8BB7F914201BB29A4203D05A
S31500040A103B6802221A7202E03B6801221A7200BF86
S31500040A203B68BA8A9A803B68FA8ADA803B681A7A03
S31500040A30FB6A1A77FB6AFA8A1A83FB6ABA8A5A83AA
S31500040A40002318463437BD4690BD00BF80B586B036
S31500040A5000AF78607B687B617B69D3F82C319B6837
S31500040A603B617B69D3F82C311B68FB60124B1B6A14
S31500040A707A69B2F8282110460021984701205AF0D5
S31500040A8063FD3B691B69F868984703467B810A4BFB
S31500040A901B6A7A69B2F82821104601219847012079
S31500040AA05AF052FD7B89002B01D07B8900E000239C
S31500040AB018461837BD4680BD64300B0090B58FB01C
S31500040AC008AF786039607B687B617B69002B01D154
S31500040AD00123D9E03B68002B01D10123D4E03B6814
S31500040AE05B69002B01D10123CEE03B685B693B6166
S31500040AF03B691B68002B01D10123C5E03B695B6898
S31500040B00002B01D10123BFE03B69DB68002B01D137
S31500040B100123B9E03B691A687B69C3F82C213B6958
S31500040B205A687B69C3F830213B681A887B699A80C6
S31500040B303B685A887B69DA803B68DA897B69A3F863
S31500040B4038253B691A897B69A3F828213B69DA6849
S31500040B507B69C3F834253B689A687B699A603B686D
S31500040B601A7B7B691A733B681A8A7B69A3F83A2550
S31500040B707B6900221A777B694FF6FF721A837B69B9
S31500040B804FF6FF725A837B692033184600210122EF
S31500040B90342358F0BDFE7B6920331846002158F0F3
S31500040BA025FFF860FB68002B01D008236CE07B6905
S31500040BB0D3F82C319B681B687A69D2F82C2111680A
S31500040BC03A691268526808461146984703467B817B
S31500040BD07B89002B01D07B8956E0786900F00EF9F9
S31500040BE003467B817B89002B01D07B894CE07B69A2
S31500040BF0D3F830319B681B687A69D2F830211168C2
S31500040C003A695268526808461146984703467B81FA
S31500040C107B89002B01D07B8936E07B69203318461B
S31500040C2058F010FF7B69543318460021242258F0EB
S31500040C30D5FDFB68002B01D0642325E07B6903F115
S31500040C4078007C697B6903F59A713B685A683B684E
S31500040C505B6800914FF48061019102920393002333
S31500040C60049301230593B02306930949094A2346AD
S31500040C7059F078F8F860FB68002B01D0642303E090
S31500040C807B69054A1A60002318461C37BD4690BD89
S31500040C90442E0B00610F04004332495480B48BB0D8
S31500040CA000AFF860B9607A603B60FB683B623B6A00
S31500040CB0002B01D101234DE0BB68002B01D1012398
S31500040CC048E07B68002B01D1012343E03B6A1B68A3
S31500040CD0234A934201D007233CE00023FB84BB68EC
S31500040CE01B881A467B689B881BB2D31ABA6812887B
S31500040CF011467A68928812B28A1A02FB03F3FB61E0
S31500040D00BB685B881A467B68DB881BB2D31ABA6851
S31500040D10528811467A68D28812B28A1A02FB03F301
S31500040D20BB61FA69BB6913447B61BB689B881A463D
S31500040D30BB689B8803FB02F33B617A693B699A4271
S31500040D4002DD4FF49663FB84FB8C002B01D0FB8CF5
S31500040D5000E0002318462C37BD465DF8047B704737
S31500040D604332495480B584B000AF78607B68FB6039
S31500040D70FB68002B01D1012314E0FB681B680B4AB6
S31500040D80934201D007230DE0FB6854331846022131
S31500040D90002258F0A7FDB860BB68002B01D00323DE
S31500040DA000E0002318461037BD4680BD433249543F
S31500040DB080B584B000AF78607B68FB60FB68002B6D
S31500040DC001D1012314E0FB681B680B4A934201D04E
S31500040DD007230DE0FB68543318460121002258F01E
S31500040DE081FDB860BB68002B01D0032300E000231B
S31500040DF018461037BD4680BD4332495480B586B087
S31500040E0000AF78607B687B617B69002B01D101238D
S31500040E1019E000233B617B6920331846396958F091
S31500040E20E5FDF860FB68002B01D008230BE07B6925
S31500040E30D3F834355B68786998477B69203318465C
S31500040E4058F000FE002318461837BD4680BD00BF83
S31500040E5080B588B000AF78607B68FB61FB69002BC6
S31500040E6001D1012359E0FB691B682E4A934201D044
S31500040E70072352E0FB69D3F82C319B68BB61FB69FD
S31500040E80D3F82C311B687B61FB69D3F830311B68BE
S31500040E903B61FB69D3F830319B68FB60FB68DB6818
S31500040EA03869984703467B817B89002B01D07B896F
S31500040EB033E0BB695B687869984703467B817B8925
S31500040EC0002B01D07B8928E0FB699B68002B0CD0A2
S31500040ED0FB699B689B68DB68FA6992681168FA6922
S31500040EE012690846114602229847FB69543318468C
S31500040EF058F0C0FCFB692033184658F061FDFB69C5
S31500040F007833184659F00EF8FB697833184658F0CA
S31500040F10CBFFFB6900221A60002318462037BD4622
S31500040F2080BD00BF4332495480B483B000AF7860BB
S31500040F307B68002B01D101230CE07B6803221A7025
S31500040F407B6801225A707B6802229A707B680122B0
S31500040F50DA70002318460C37BD465DF8047B7047EB
S31500040F6090B58FB002AF786000233B857B687B62C7
S31500040F705AF046FDF8627B6A00221A6114E00023E7
S31500040F803B757B6A9B689B689C687B6A9B6819684F
S31500040F907B6A03F1100207F11403084611461A4648
S31500040FA00A23A04703467B847B6A1B69002BE6D091
S31500040FB07B6A1B6900221A707B6A1B6901225A80AC
S31500040FC07B6A1B697A6A127B5A700023BB617B6A4F
S31500040FD003F1540207F11804002300931046032179
S31500040FE00122234658F05CFCBB6903F00103002B85
S31500040FF010D07B6A03F1540207F118044FF0FF3353
S315000410000093104602210122234658F049FC786ACF
S31500041010FFF7F4FE7B6AD3F834351B687A6A1269E3
S31500041020786A1146984703467B847B8C002B16D13D
S315000410307B6A9B881A467B6A1B699B881BB29A4209
S3150004104008DB7B6ADB881A467B6A1B69DB881BB272
S315000410509A4211DA7B6A1B6900221A720CE07B8CB5
S31500041060652B05D17B6A7833184658F04FFF03E0A9
S315000410707B6A1B6900221A72012387F82B307B6A6C
S315000410801B691B7A012B09D07B6A1B691B7A022B0D
S3150004109004D07B6A1B691B7A002B12D15AF0B0FC70
S315000410A0F8617B6AB3F838356422B2FBF3F39BB27A
S315000410B01A46FB6A1A44FB699A4202D3002387F84C
S315000410C02B3097F82B30002B6DD05AF099FCF86230
S315000410D07B6AB3F83A35B42B19D0B3F5877F2FD092
S315000410E05A2B00D040E07B6A1B69DB883B857B6A10
S315000410F01B697A6A12699288DA807B6A1B697A6A42
S31500041100D1883A8D8A1A92B292B29A802CE07B6A7E
S315000411101B697A6A91887A6A1269928892B28A1AE3
S3150004112092B292B29A807B6A1B697A6AD1887A6A89
S315000411301269D28892B28A1A92B292B2DA8013E013
S315000411407B6A1B699B883B857B6A1B697A6A126981
S31500041150D2889A807B6A1B697A6A91883A8D8A1A40
S3150004116092B292B2DA8000BF07F1080300221A6035
S31500041170043300221A60043300221A6004337B6AA3
S315000411809B689B681C697B6A9B6818687B6A1969FB
S3150004119007F10802002300930023A04703467B843B
S315000411A07B6A00221A61E9E680B586B000AF7860F2
S315000411B039607B683B613B69002B01D1012338E030
S315000411C0386800F01DFB0346FB81FB89002B01D028
S315000411D0FB892EE03B6993F83E30012B01D10823AD
S315000411E027E03869396800F043FB0346FB81FB8935
S315000411F0002B01D0FB891CE03B68DA683B691A6363
S315000412003B6900229A873B68DB687B6108E03B699F
S315000412109B8F01339AB23B699A877B6904337B615E
S315000412207B691B68002BF2D13B69012283F83E20BF
S31500041230002318461837BD4680BD00BF80B58AB066
S3150004124000AF78607B687B617B69002B01D1012349
S3150004125045E07B6993F83E30012B01D007233EE03D
S315000412607B691B6B7B6200233B6228E07B6A1B68FD
S31500041270002B02D14FF4FB6331E00023FB617B6A50
S315000412801B685B68BB610FE0BB691A1DBA611B680A
S315000412903B613B691B68184658F058FCF860FB68CC
S315000412A0002B01D064231AE0FB695A1CFA617A6A9E
S315000412B0126852889342E7D37B6A04337B623B6AA3
S315000412C05A1C3A627A69928F9342CFD37B69184645
S315000412D058F060FA7B69002283F83E200023184602
S315000412E02837BD4680BD00BF80B588B000AFF86022
S315000412F0B9607A603B60FB68FB6100233B61FB6974
S31500041300002B01D1012349E0BB68002B01D1012345
S3150004131044E0FB6993F83E30012B01D007233DE0FE
S31500041320BB6800221A60FA6907F1100310461946D1
S315000413303A6858F0A5F9B861BB69002B20D1FB695E
S315000413405B6B3A6913447B61786900210C226FF068
S315000413502FF97A69937A43F0800393723A69BB68EA
S315000413601A60BB681B6800221A607B681B78002B16
S3150004137005D07A69937A43F0010393720DE00CE089
S31500041380BB69102B02D14FF4FA6307E0BB69042B47
S3150004139001D1142302E0642300E000231846203719
S315000413A0BD4680BD80B592B000AFF860B960134603
S315000413B0FB71FB68BB63BB6B002B01D10123CCE043
S315000413C0BB68002B01D10123C7E0BB6B93F83E3009
S315000413D0012B01D00723C0E0BB68BA6B5269043203
S315000413E09B1ABA6B526B1032B3FBF2F102FB01F299
S315000413F09B1A002B02D040F2D173AEE0BB6B5A6B42
S31500041400BB6813447B63002387F84730002387F8BF
S31500041410463000233B640023FB6300233B63EFF366
S315000414201083BB62BB6A3B6301237B627B6A83F3E3
S3150004143010887B6B9B7A23F07F03DBB2002B07D1EA
S315000414403B6B3B623B6A83F3108840F2D97384E0BA
S31500041450FB7903F00403DBB2002B04D07A6B937A96
S3150004146043F0020393727B6B5B68FB62FB7903F0C8
S315000414700103DBB2002B1BD07B6B1B68002B0BD04C
S31500041480012387F847307B6B9B7AC3F34003DBB2B7
S315000414903B647B6B1B68FB63012387F846307B6BDD
S315000414A000221A817A6B937A6FF30003937227E012
S315000414B07B6B1B89002B05D07B6B1B89013B9AB286
S315000414C07B6B1A817B6B1B89002B19D17B6B1B6889
S315000414D0002B0BD0012387F847307B6B9B7AC3F331
S315000414E04003DBB23B647B6B1B68FB637B6B9B7AC1
S315000414F003F00103DBB2002B02D1012387F8463047
S3150004150097F84630002B0FD0BB6800221A607A6B1E
S31500041510937A6FF3410393727A6B937A6FF3C713DB
S315000415209372B86858F04CF93B6BFB61FB6983F323
S31500041530108897F84730002B0ED03B6C002B02D056
S3150004154001233B7501E000233B75FB6ABB6107F190
S315000415501402FB6B10469847002318464837BD46CD
S3150004156080BD00BF80B59AB000AFF860B9607A60FC
S315000415703B60FB687B647B6C002B01D10123E6E0B6
S31500041580BB68002B01D10123E1E07B6C93F83E306C
S31500041590012B01D00723DAE0BA687B6C5B6904335C
S315000415A09A4211D0BB687A6C526904329B1A7A6CDF
S315000415B0526B1032B3FBF2F102FB01F29B1A002BC1
S315000415C002D040F2D173C2E07B6C1B6B7B660023B6
S315000415D087F863300023FB650023BB657B68002B1B
S315000415E009D07B685B68BB657B689B68FB657B6829
S315000415F01B7887F86330786CB9687A6E00F0B4F9B2
S315000416000346A7F84230B7F84230002B02D140F225
S31500041610D5739CE07B6C5A6BBB681344FB63002355
S31500041620BB63EFF31083FB62FB6ABB630123BB62FC
S31500041630BB6A83F31088FB6B9B7A23F07F03DBB2D0
S31500041640002B07D1BB6B7B627B6A83F3108840F265
S31500041650D9737CE0FB6BB7F842201A81FB6BBA6D39
S315000416601A60FB6BFA6D5A60BB6B3B623B6A83F391
S3150004167010880023A7F8563000233B655EE07B6E96
S315000416801B68002B02D14FF4FB6360E0BB681A7839
S315000416907B6E1B681B789A424DD10023FB647B6EDC
S315000416A01B685B68BB643EE0BB6C1A1DBA641B68AE
S315000416B07B63BB685A787B6B1B799A4233D3BB68CE
S315000416C05A787B6B5B799A422DD87B6B1A6897F8AC
S315000416D063301046B9681A463B6F00F015F90346A5
S315000416E07B867B8E002B1ED0EFF31083FB61FB6998
S315000416F0BB630123BB61BB6983F31088FB6B1B8946
S31500041700013B9AB2FB6B1A81BB6B7B617B6983F3EA
S3150004171010883B68002B03D07B6B1A683B681A6001
S315000417207B8EA7F85630FB6C5A1CFA647A6E1268E4
S3150004173052889342B8D37B6E04337B663B6D5A1C46
S315000417403A657A6C928F934299D3B7F85630184615
S315000417506837BD4680BD00BF80B586B000AFF8606F
S31500041760B9607A603B60FB687B617B69002B01D1C1
S31500041770012325E07B68002B01D1012320E07B694E
S3150004178093F83E30012B01D0072319E07B68002231
S315000417901A60B86879683A6858F004FA38613B699F
S315000417A0002B01D100230BE03B690A2B02D140F246
S315000417B0D67305E03B69042B01D0142300E06423AF
S315000417C018461837BD4680BD80B483B000AF786034
S315000417D07B68002B01D101230CE07B6803221A707D
S315000417E07B6801225A707B6802229A707B68012208
S315000417F0DA70002318460C37BD465DF8047B704743
S3150004180080B483B000AF78607B68002B01D10123DC
S3150004181027E07B681B68002B01D1012321E07B684C
S315000418205A687B689B6810339A4202D840F2D27396
S3150004183017E07B689B68032B02D840F2D37310E051
S315000418407B689B6803F00303002B02D040F2D3733A
S3150004185007E07B68DB68002B02D14FF4FB6300E0F2
S31500041860002318460C37BD465DF8047B704700BF5D
S3150004187090B589B002AF786039603B681B687B61BC
S315000418803B685B683B617B6903F00303002B08D06C
S315000418907B6923F003037B613B6903339B089B004D
S315000418A03B617B69184600213A696EF081FE3B680C
S315000418B09B6810333A69B2FBF3F3FB60FB68002BB9
S315000418C002D140F2D2731BE03B689A687B685A6384
S315000418D07B68FA689A6378683B6819693B689B6811
S315000418E003F10C027C693B69009330230193234680
S315000418F057F0E6FE0346002B01D0642300E00023E4
S3150004190018461C37BD4690BD80B586B000AFF8605A
S31500041910B9603B601346FB71FB79012B08D107F1D3
S315000419200803F86819463A6858F01CF9386107E064
S3150004193007F10803F86819463A6858F053F938610C
S315000419403B69002B02D10023FB8208E03B690B2B89
S3150004195003D140F2D773FB8201E06423FB82FB8A46
S3150004196018461837BD4680BD80B489B000AFF8600C
S31500041970B9607A600023FB830023BB8332E07B6873
S315000419801B68002B01D1BB8B34E0BB681A787B68DB
S315000419901B681B789A4222D10023BB617B681B68B3
S315000419A05B687B6113E07B691A1D7A611B683B6186
S315000419B0BB685A783B691B799A4208D3BB685A7844
S315000419C03B695B799A4202D8BB8B0133BB83BB6903
S315000419D05A1CBA617A68126852889342E3D37B68C8
S315000419E004337B60FB8B5A1CFA83FA68928F93420A
S315000419F0C5D3BB8B18462437BD465DF8047B7047B8
S31500041A0080B58AB000AF786039607B687B627B6A98
S31500041A10002B01D101237CE03B68002B01D101237B
S31500041A2077E03B681B689B68002B01D1012370E0BB
S31500041A303B681B689B681B68002B01D1012368E087
S31500041A403B681B685B68002B01D1012361E07B6A5C
S31500041A501B68324A934201D108235AE03B681A684C
S31500041A607B6A5A657B6A38331846002100221C2398
S31500041A7058F0ECF87B6A043318460021012234231B
S31500041A8057F046FF7B6A04331846002157F0AEFF31
S31500041A9038623B6A002B01D008233AE03B681B6896
S31500041AA05B6807F108021046194614226EF082FCA0
S31500041AB03B681B79002B08D100233B6100237B6123
S31500041AC07B6A002283F8582007E0154B3B617B6A4A
S31500041AD07B617B6A012283F858203B681B689B68FC
S31500041AE01B687A6A526D116807F1080208461146A6
S31500041AF098470346FB83FB8B002B01D0FB8B08E046
S31500041B007B6A0433184657F09DFF7B6A034A1A60C2
S31500041B10002318462837BD4680BD00BF4E45504FAA
S31500041B206D1C040080B584B000AF786039607B68B2
S31500041B30FB60FB68002B01D1012318E0FB681B68DE
S31500041B400D4A934201D0072311E0FB683833184647
S31500041B50396858F0E5F8B860BB680D2B01D1142339
S31500041B6005E0BB68002B01D0652300E0002318467E
S31500041B701037BD4680BD00BF4E45504F80B483B07C
S31500041B8000AF78607B68002B01D1012304E0054B8C
S31500041B901A687B681A60002318460C37BD465DF840
S31500041BA0047B7047742E0B0080B586B000AF786056
S31500041BB07B687B617B69002B01D1012350E07B6943
S31500041BC05B6D002B01D101234AE07B695B6D9B6849
S31500041BD0002B01D1012343E07B691B68224A93420F
S31500041BE001D007233CE07B695B6D9B689B69002BF6
S31500041BF001D1062334E07B6904331846002157F0EB
S31500041C00F5FE38613B69002B01D0082328E07B6987
S31500041C105B6D9B689B697A69526D1268104698479A
S31500041C200346FB81FB89072B02D0FB89002B11D1CC
S31500041C307B6900221A607B690433184657F002FF59
S31500041C407B690433184657F0BBFE7B693833184664
S31500041C5058F050F8FB89002B01D0FB8900E00023E3
S31500041C6018461837BD4680BD4E45504F80B584B0E2
S31500041C7000AF78607B68002B12D07B681B68002B52
S31500041C800ED07B681B68FB60FB681B68064A9342A0
S31500041C9000D005E0FB6838331846012157F0C2FF2F
S31500041CA01037BD4680BD00BF4E45504F80B584B049
S31500041CB000AFF860B9607A60FB68BA685A627A68FD
S31500041CC0FB685A63FB689B6B184600F0EDFE103701
S31500041CD0BD4680BD90B597B002AFF860B9607A6032
S31500041CE0FB689B697B637B6B5B8A9BB2013B9BB204
S31500041CF099B27B6B9B8A9BB2013B9BB29BB207F169
S31500041D001C020CB21BB2009310460021002223468B
S31500041D105AF084FFBA6807F114031068516803C3C4
S31500041D20BB8A23F001039BB2BB82FB8A23F0010327
S31500041D309BB2FB823B8B43F001039BB23B837B8BC1
S31500041D4043F001039BB27B83FB68B3F83423FB683F
S31500041D50B3F8363307F1140112B21BB20846114622
S31500041D601A465AF08BFF07F1140107F11C0207F11A
S31500041D701403084611461A465AF05CFF3B8B1AB206
S31500041D80BB8A1BB2D31A01333B637B8B1AB2FB8A21
S31500041D901BB2D31A0133FB623B6B002B40F34A811F
S31500041DA0FB6A002B40F34681FB681B69FB64994B75
S31500041DB01B68BB647B6B9B8A1BB2BB62FB68B3F874
S31500041DC030331BB27B627B68002B0ED1FB8A1BB2BD
S31500041DD07A6A02FB03F31A46BB6C1344BB64BB8AE0
S31500041DE01BB2BA6C1344BB6442E07B68B3F5877FCD
S31500041DF013D17B6B5B8A1BB25A1EBB8A1BB2D31AE6
S31500041E00BA6A02FB03F31A46BB6C1344BB64FB8A2F
S31500041E101BB2BA6C1344BB642AE07B685A2B14D1F8
S31500041E20BB8A1BB2BA6A02FB03F31A46BB6C1344A1
S31500041E30BB64BB6A013BBA6C1344BB64FB8A1BB22A
S31500041E405B42BA6C1344BB6412E07B6B9B8A1AB286
S31500041E50FB8A1BB2D31A7A6A02FB03F31A46BB6CDB
S31500041E601344BB64BB8A1BB2DB43BA6C1344BB6426
S31500041E707B68002B41D1FB68B3F836331AB2FB8A70
S31500041E801BB213447A6A02FB03F31A46FB6C13442F
S31500041E90FB64FB68B3F834331AB2BB8A1BB213442F
S31500041EA01A46FB6C1344FB640023FB6320E0FB6CC3
S31500041EB07B64BB6C3B640023BB630AE03B6C5A1C2B
S31500041EC03A647A6C511C796412781A70BB6B0133CC
S31500041ED0BB63BA6B3B6B9A42F0DB7B6AFA6C1344C6
S31500041EE0FB647B6ABA6C1344BB64FB6B0133FB6310
S31500041EF0FA6BFB6A9A42DADB9CE07B68B42B42D12C
S31500041F00FB68B3F836331AB2FB8A1BB213447A6AF7
S31500041F1002FB03F31A46FB6C1344FB64FB68B3F839
S31500041F2034331AB2BB8A1BB213441A46FB6C1344ED
S31500041F30FB640023FB6321E0FB6C7B64BB6C3B64AA
S31500041F400023BB630AE03B6C5A1E3A647A6C511C4C
S31500041F50796412781A70BB6B0133BB63BA6B3B6B43
S31500041F609A42F0DB7B6AFA6C1344FB647B6A5B423D
S31500041F70BA6C1344BB64FB6B0133FB63FA6BFB6AF9
S31500041F809A42D9DB56E0FB68B3F836331AB2FB8AB9
S31500041F901BB213447A6A02FB03F31A46FB6C13441E
S31500041FA0FB64FB68B3F834331AB2BB8A1BB213441E
S31500041FB01A46FB6C1344FB640023FB6336E0FB6C9C
S31500041FC07B64BB6C3B640023BB6316E07B6C5A1CCE
S31500041FD07A641A783B6C1A707B68B3F5877F05D1EF
S31500041FE0BB6A5B423A6C13443B6403E0BB6A3A6CDB
S31500041FF013443B64BB6B0133BB63BA6B3B6B9A42C2
S31500042000E4DB7B68B3F5877F06D1BB6C0133BB6425
S3150004201005E000BF189AFE1FBB6C013BBB647B6ADC
S31500042020FA6C1344FB64FB6B0133FB63FA6BFB6AC8
S315000420309A42C4DB5437BD4690BD00BF90B595B0F7
S3150004204002AF786039607B689B69FB62FB6A5B8AD6
S315000420509BB2013B9BB299B2FB6A9B8A9BB2013B42
S315000420609BB29BB207F114020CB21BB2009310464A
S3150004207000210022234662F091FF3A6807F10C031F
S315000420801068516803C3BB8923F001039BB2BB816B
S315000420903B8A43F001039BB23B827B68B3F834234B
S315000420A07B68B3F8363307F10C0112B21BB208464B
S315000420B011461A4662F0CAFF07F10C0107F1140231
S315000420C007F10C03084611461A4662F071FF3B8A73
S315000420D01AB2BB891BB2D31A0133BB627B8A1AB20A
S315000420E0FB891BB2D31A01337B62BB6A002B7FDDEB
S315000420F07B6A002B7CDD404B1B687B643F4B1B6873
S315000421003B64BB6A002B00DA03339B10BB627B681B
S31500042110B3F830331BB2002B00DA03339B109BB2A7
S315000421201BB23B62FB891BB23A6A02FB03F39B00B8
S315000421303A6C13443B64BB891BB2002B00DA0333AD
S315000421409B109BB21BB29B003A6C13443B64FB6A24
S315000421505B8A1BB2002B00DA03339B109BB21BB2C3
S31500042160FB617B68B3F836331AB2FB891BB213449E
S31500042170FA6902FB03F39B007A6C13447B647B6865
S31500042180B3F834331AB2BB891BB21344002B00DAFA
S3150004219003339B109B007A6C13447B6400237B639C
S315000421A022E07B6CFB633B6CBB6300233B630AE06E
S315000421B0BB6B1A1DBA63FA6B111DF96312681A60B8
S315000421C03B6B01333B633A6BBB6A9A42F0DB3B6A77
S315000421D09B003A6C13443B64FB699B007A6C134482
S315000421E07B647B6B01337B637A6B7B6A9A42D8DBB5
S315000421F04C37BD4690BD00BF149AFE1F189AFE1FA9
S3150004220090B58BB002AF786039607B689B69FB61DF
S315000422107B68B3F830339BB2013B9BB299B27B68BF
S31500042220B3F832339BB2013B9BB29BB207F1100267
S315000422300CB21BB20093104600210022234662F022
S31500042240ADFEFB699B6B184600F01EFCB861FB698A
S315000422509B6B18462F49304A00F064FA7B681A696A
S315000422602D4B1B689A4215D07B6803F11C0207F1BB
S31500042270100107F10803084611461A4662F098FE53
S315000422800346002B06D007F1080378681946BA6995
S31500042290FFF720FD7B689B699B6B18461D4900F080
S315000422A057FA7B689B699B6B18461A491A4A00F0D1
S315000422B039FA7B681A69174B1B689A4203D1164B85
S315000422C01A687B681A617B6803F11C0207F1100126
S315000422D007F10803084611461A4662F069FE0346EA
S315000422E0002B13D07B681A690B4B1B689A4206D1E4
S315000422F007F1080378681946FFF7A0FE06E007F120
S31500042300080378681946BA69FFF7E4FC2437BD4622
S3150004231090BD00BF149AFE1F189AFE1F80B584B0A4
S3150004232000AF786039607B68FB60FB68002B01D1E5
S315000423300123CBE03B68002B01D10123C6E03B68B7
S315000423401B68002B01D10123C0E03B685B68002BAE
S3150004235001D10123BAE03B68DB68002B01D10123DC
S31500042360B4E03B689B8C002B0CBF01230023DAB23C
S315000423703B689B8C5A2B0CBF01230023DBB213430F
S31500042380DBB21A463B689B8CB42B0CBF012300239B
S31500042390DBB213433A68928CB2F5877F0CBF0122F5
S315000423A00022D2B21343002B01D101238EE03B68F5
S315000423B09A683B68DB689A4201D1032386E03B684E
S315000423C01B69002B07D03B689A683B681B699A42D5
S315000423D001D103237AE03B689B68002B05D13B6857
S315000423E09B8C002B01D0032370E0FB6893F83E30EE
S315000423F0002B01D0082369E0FB6893F83E30012BDB
S315000424000BD0344834490122342357F081FAB8609A
S31500042410BB68002B01D0642358E02E484FF4967114
S3150004242057F0E4FAB860BB68002B04D0294857F08B
S31500042430C7FA64234AE0FB6820331846274900227A
S315000424401C2357F003FCB860BB68002B04D021485A
S3150004245057F0B6FA642339E03B681A68FB685A6099
S315000424603B685A69FB689A613B685A68FB689A60DC
S315000424703B689A68FB68DA603B68DA68FB681A614D
S315000424803B681B69002B04D03B681A69FB685A61D8
S3150004249003E03B68DA68FB685A613B68DA69FB6803
S315000424A01A643B681A6AFB685A64FB68002283F85C
S315000424B03C203B689A8CFB68A3F84820084AFB68D2
S315000424C01360FB68012283F83E2000231846103768
S315000424D0BD4680BD209AFE1F9C2E0B00AC2E0B0021
S315000424E01C9AFE1F80B586B000AF78607B687B615E
S315000424F07B69002B01D1012339E07B6993F83E30D7
S31500042500002B01D1072332E01B484FF4967157F094
S315000425106DFA38613B69002B01D0642327E07B699F
S3150004252093F83E30022B0FD1786900F0CBF90346BD
S31500042530FB81FB89002B07D00F4857F083FAFB89F0
S31500042540002B01D0FB8912E07B69002283F83E2030
S315000425507B692033184657F0CDFB074857F072FACB
S31500042560054857F02DFA054B00221A600023184639
S315000425701837BD4680BD00BF209AFE1F1C9AFE1F59
S3150004258080B483B000AF78607B6804221A707B68DD
S3150004259001225A707B6802229A707B680122DA70E3
S315000425A0002318460C37BD465DF8047B704700BF10
S315000425B080B588B000AF7860394B1B68FB61FB6956
S315000425C0002B01D1102366E0FB695B685B681B7B0B
S315000425D0052B23D801A252F823F000BF05260400D8
S315000425E0FD250400F52504001D2604000D2604001F
S315000425F0152604007B680E221A821EE07B681422CC
S315000426001A821AE07B6816221A8216E07B680F2269
S315000426101A8212E07B680A221A820EE000233B73B8
S3150004262001237B7303233B611D4B1B689B6907F1E5
S315000426300C021046984710232DE07B6800229A630B
S31500042640174B1B687A681A607868F96900F088F98C
S3150004265003467B837B8B002B0DD000233B73012326
S315000426607B737B8B3B61FB699B6907F10C0210460C
S31500042670984710230FE0FB69022283F83E200023CB
S31500042680FB61084857F0DEF978617B69002B01D0BD
S31500042690102300E0002318462037BD4680BD00BF46
S315000426A01C9AFE1F209AFE1F80B584B000AF786086
S315000426B039607B68FB60FB68002B01D101232AE0AB
S315000426C0FB6893F83E30022B01D01A2323E014480A
S315000426D04FF4967157F08AF9B860BB68002B01D0A5
S315000426E0642318E0FB68DB68002B05D13B689B6E0E
S315000426F0FA6852691A6104E03B689B6EFA68D2680C
S315000427001A61074857F09EF9B860BB68002B01D0E0
S31500042710642300E0002318461037BD4680BD00BF81
S31500042720209AFE1F80B487B000AFF860B9607A6063
S31500042730FB687B617B691A69BB681A607B695A69A5
S315000427407B681A601C37BD465DF8047B704700BF82
S3150004275080B584B000AF786039607B68FB60FB6845
S315000427601B69BB60FB689B68FA6852691A60FB6860
S315000427705A69FB681A61FB68BA685A613B68BA68A9
S315000427801A6002E0012058F0DFFEFB685B689B6874
S315000427901B69FA6852681168FA6892680846114615
S315000427A0002298470346002BECD1FB68012283F8EC
S315000427B03C20FB68203318464FF0FF3157F0B0FA3F
S315000427C01037BD4680BD00BF80B5A6B000AF7860A7
S315000427D039603B685B685A6807F10803114684222E
S315000427E018466DF0E7FD364BC7F880303B68C7F8EE
S315000427F084303B685B689B681B683A68526811685A
S3150004280007F108020846114698470346A7F896308A
S31500042810B7F89630002B1ED03B689B69002B13D06B
S31500042820B7F89630002B0FD0012387F88C3001239C
S3150004283087F88D30B7F89630C7F890303B689B69B7
S3150004284007F18C0210469847B7F89630002B02D051
S31500042850B7F896302FE03B685B689B689B683A68DC
S3150004286052681268104698470346A7F89630B7F898
S315000428709630002B1ED03B689B69002B13D0B7F80B
S315000428809630002B0FD0012387F88C30012387F86C
S315000428908D30B7F89630C7F890303B689B6907F1DE
S315000428A08C0210469847B7F89630002B02D0B7F83A
S315000428B0963000E0002318469837BD4680BD00BF19
S315000428C0ED2A040080B584B000AF78600023FB6075
S315000428D07B685B689B68DB687A6852681268104696
S315000428E0984703467B817B8940F2EE3293420CD1B2
S315000428F0012058F029FEFB680133FB60FB6841F2B6
S315000429008832934205D9142325E000BF0023FB60D7
S3150004291000E0DDE77B685B689B685B687A68526801
S3150004292012681046984703467B817B8940F2EE3253
S3150004293093420CD1012058F007FEFB680133FB607B
S31500042940FB6841F28832934204D9142303E000BFA2
S31500042950002300E0DEE718461037BD4680BD00BF01
S3150004296080B584B000AF78603960786852F062FA56
S315000429707868396800F014F878683968FFF724FF36
S315000429800346FB81FB89002B01D0FB8903E03A68EF
S315000429907B689A63002318461037BD4680BD00BF86
S315000429A080B487B000AF786039607B681B8A1BB23D
S315000429B00A3B0C2B25D801A252F823F0FD2904006A
S315000429C0032A0400032A0400032A0400F12904004C
S315000429D0F1290400032A0400032A0400032A04003C
S315000429E0032A0400F7290400032A0400F729040033
S315000429F002237B6108E001237B6105E004237B61FC
S31500042A0002E001237B6100BF3B681B693B61002335
S31500042A10FB6008E03B6900221A603B6904333B61B2
S31500042A20FB680133FB607B685B8A1BB27A68928A17
S31500042A3012B202FB03F27B6992FBF3F2FB689A4241
S31500042A40E8DC3B685B693B610023BB6008E03B69EB
S31500042A5000221A603B6904333B61BB680133BB60E7
S31500042A607B685B8A1BB27A68928A12B202FB03F213
S31500042A707B6992FBF3F2BB689A42E8DC1C37BD46DD
S31500042A805DF8047B704700BF80B485B000AF786002
S31500042A907B68FB60FB68B3F8483018461437BD46BC
S31500042AA05DF8047B704700BF80B586B000AF7860E0
S31500042AB07B687B617B691B685B6AFB6000233B82E6
S31500042AC07B691B685B6B9BB27B827B695B689B68DB
S31500042AD09B697A695268116807F10C020846114627
S31500042AE0002298471837BD4680BD00BF80B586B022
S31500042AF000AF78607B685B687B617B681B78032B1F
S31500042B0011D17B6993F83C30002B09D07B692033C3
S31500042B101846012157F086F87B69002283F83C2089
S31500042B2002237B7305E07B681B78012B01D1032309
S31500042B307B737B699B69002B09D001233B730023BC
S31500042B403B617B699B6907F10C021046984718376D
S31500042B50BD4680BD90B58DB000AF78600023FB857F
S31500042B607B689022C3F88C207B68D3F884303B6260
S31500042B703B6A1B68FB61FB695A6807F1100392E81C
S31500042B80030083E803003B6A002B02D0FB69002B99
S31500042B9004D17B681822C3F88C2065E17B68D3F8DE
S31500042BA08830082B00F2538101A252F823F000BFAB
S31500042BB0D52B0400FF2B0400592E0400292C0400F5
S31500042BC03D2C0400AF2C04004F2E0400052E0400F7
S31500042BD09B2C0400FB699B685C68FB6918687B682E
S31500042BE0D3F890107B68D3F894207B681B6F1A4443
S31500042BF07B68D3F89830A0470346FB852DE1FB6933
S31500042C009B689C68FB6918687B68D3F890107B689E
S31500042C10D3F894207B681B6F1A447B68D3F89830EA
S31500042C20A0470346FB8518E1FB699B681B69FA69A3
S31500042C301268104698470346FB850EE10023FB60A5
S31500042C40FB699B681B68FA691168FA695268084649
S31500042C50114698470346FB85FB8D002B0FD1FB6974
S31500042C609B68DB68FA69116807F10C0208460521BE
S31500042C7098470346FB85FA687B68C3F8A820FB8D52
S31500042C80002B08D1FB699B681B69FA691268104618
S31500042C9098470346FB8500BFDFE0FB699B681B6919
S31500042CA0FA691268104698470346FB85D5E0002367
S31500042CB0BB6200237B6210233B61FB699B681B6834
S31500042CC0FA69116807F11002084611469847034647
S31500042CD0FB85FB8D002B12D17B68D3F89030BB6249
S31500042CE0FB699B685C68FB691A687B68D3F890305B
S31500042CF01046194600220123A0470346FB85FB8D97
S31500042D00002B25D1BB6A002B22D0BB6A1B78EB2B88
S31500042D1004D1BB6A02331B78902B19D0BB6A1B788B
S31500042D20E92B15D0BB6AD3F8C6317B627B6A002BCC
S31500042D300ED0FB699B685C68FB691A687B68D3F8EC
S31500042D409030104619467A6A0123A0470346FB854C
S31500042D50FB8D002B08D1FB699B681B69FA69126815
S31500042D60104698470346FB85FB8D002B36D1BB6A7C
S31500042D70002B11D0BB6A1B78EB2B04D1BB6A023340
S31500042D801B78902B08D0BB6A1B78E92B04D07B6890
S31500042D900222C3F88C2067E0BB6A0B331B789AB215
S31500042DA0BB6A0C331B781B029BB213439BB27B8317
S31500042DB07B8B002B04D17B680222C3F88C2053E062
S31500042DC07B8B3B61FB699B681B68FA69116807F199
S31500042DD010020846114698470346FB85FB8D002BD7
S31500042DE00FD1FB699B685C68FB691A687B68D3F83A
S31500042DF09030104619467A6A0123A0470346FB859C
S31500042E002BE02AE07B689B6A3B61FB699B681B6835
S31500042E10FA691168FA6952680846114698470346E2
S31500042E20FB85FB8D002B11D1FB699B689C68FB69B4
S31500042E3019687B68D3F890207B681B6F0846114697
S31500042E401A460123A0470346FB8506E005E07B6896
S31500042E509022C3F88C2007E000BFFB8D002B03D122
S31500042E607B680022C3F88C203437BD4690BD00BF72
S31500042E7080B58CB000AF786039607B68FB623B68D4
S31500042E805B68BB62BB6A1B687B623B68002B05D030
S31500042E90BB6A002B02D07B6A002B01D1012326E0FA
S31500042EA07B6A5B6807F108021046194618226DF022
S31500042EB081FA114B3B61FB6A7B617B6A9B681B68E9
S31500042EC07A6A116807F108020846114698470346CC
S31500042ED07B847B8C002B09D1FB6A7A6A5A60FB6A75
S31500042EE0083318460549242256F078FC7B8C18468C
S31500042EF03037BD4680BD00BFF5300400D82E0B0028
S31500042F0090B58DB002AFF860B9607A603B60FB683B
S31500042F103B6200237B610023FB613B6A5B68BB6108
S31500042F203B6A002B02D0BB69002B01D101232FE0A1
S31500042F30BB699B689C68BB691B681846B9687A6854
S31500042F403B68A0470346FB84FB8C002B01D0FB8C1B
S31500042F501EE03B6A03F1080207F1140442F21073FF
S31500042F600093104604210122234656F099FCF86189
S31500042F70FB69002B02D06423FB8408E07B69042BE5
S31500042F8002D10023FB8402E049F64343FB84FB8C15
S31500042F9018462C37BD4690BD90B58DB002AFF8608B
S31500042FA0B9607A603B60FB683B6200237B61002367
S31500042FB0FB613B6A5B68BB613B6A002B02D0BB6961
S31500042FC0002B01D101232EE0BB699B68DC68BB6939
S31500042FD01B681846B9687A683B68A0470346FB84B1
S31500042FE0FB8C002B01D0FB8C1DE03B6A03F108022D
S31500042FF007F1140442F210730093104604210122CF
S31500043000234656F04DFCF861FB69002B02D064237D
S31500043010FB8407E07B69042B02D10023FB8401E0D7
S315000430201823FB84FB8C18462C37BD4690BD00BF85
S3150004303080B586B000AFF8600B467A60FB72FB6819
S315000430407B617B695B683B617B69002B02D03B69D2
S31500043050002B01D101230AE03B699B681B693A698D
S315000430601168FA7A084611467A689847034618465C
S315000430701837BD4680BD00BF80B586B000AF786006
S315000430807B687B617B695B683B617B69002B02D053
S315000430903B69002B01D1012311E03B699B685B6806
S315000430A03A691268104698470346FB81FB89002B50
S315000430B004D17B690833184656F0DCFBFB891846B5
S315000430C01837BD4680BD00BF80B483B000AF7860BA
S315000430D07B68002B01D1012304E0054B1A687B6849
S315000430E01A60002318460C37BD465DF8047B70470A
S315000430F0D42E0B0080B584B000AF78607B685B6823
S31500043100FB60FB680833BB607B681B78042B03D029
S315000431107B681B78052B09D1FB680833BB607B6889
S315000431201B78B8681946002256F0DCFB1037BD46FA
S3150004313080BD00BF80B483B000AF78607B689A6CB2
S3150004314022F400729A647B681A6D22F480721A65FE
S315000431507B6800229A667B680022C3F8B0217B68EC
S315000431600022C3F8CC217B680022C3F8E0210C3787
S31500043170BD465DF8047B704780B483B000AF7860C9
S315000431800B467B807A887B681A600C37BD465DF8EF
S31500043190047B704780B483B000AF78600B46FB7045
S315000431A0FB78002B08D07B68D3F8B03143F00202D9
S315000431B07B68C3F8B02107E07B68D3F8B03123F00D
S315000431C002027B68C3F8B0210C37BD465DF8047B68
S315000431D0704700BF80B483B000AF78607B681B6E15
S315000431E018460C37BD465DF8047B704780B483B03F
S315000431F000AF78607B689B6B5B0903F00103DBB26D
S31500043200002B14BF01230023DBB218460C37BD463E
S315000432105DF8047B704700BF80B483B000AF78606C
S315000432207B689B6BDB0903F00103DBB283F00103CC
S31500043230DBB218460C37BD465DF8047B704700BF09
S3150004324080B483B000AF78607B689B6B18460C37FC
S31500043250BD465DF8047B704780B483B000AF7860E8
S315000432607B68DB6B18460C37BD465DF8047B7047FC
S3150004327080B483B000AF78607B68DB6E18460C3789
S31500043280BD465DF8047B704780B483B000AF7860B8
S3150004329039603B68DA437B689A630C37BD465DF850
S315000432A0047B704780B483B000AF786039603B68B4
S315000432B0DA437B68DA630C37BD465DF8047B7047F6
S315000432C080B483B000AF78607B68DB6B1B0A03F0C5
S315000432D00103DBB2002B14BF01230023DBB2184623
S315000432E00C37BD465DF8047B704700BF80B483B0DD
S315000432F000AF786039607B68DA6E3B68DB431A405E
S315000433007B68DA660C37BD465DF8047B704700BF00
S3150004331080B483B000AF78600B46FB707B68FA78A4
S3150004332002F00102996E21F001010A439A660C37F4
S31500043330BD465DF8047B704780B483B000AF786007
S315000433407B68DB6B9B0B03F00103DBB2002B14BF22
S3150004335001230023DBB218460C37BD465DF8047B17
S31500043360704700BF80B483B000AF78607B68DB6BC6
S31500043370DB0903F00103DBB2002B14BF0123002396
S31500043380DBB218460C37BD465DF8047B704700BFB8
S3150004339080B483B000AF78607B6800229A637B6850
S315000433A00022DA630C37BD465DF8047B704700BF24
S315000433B080B483B000AF78607B689A6C42F4807204
S315000433C09A640C37BD465DF8047B704780B483B0BD
S315000433D000AF78607B689A6C22F480729A640C372A
S315000433E0BD465DF8047B704780B483B000AF786057
S315000433F07B68DB6B5B0B03F00103DBB2002B14BFB2
S3150004340001230023DBB218460C37BD465DF8047B66
S31500043410704700BF80B483B000AF786039603B6802
S315000434209AB27B689A603B681A0C7B68DA600C3740
S31500043430BD465DF8047B704780B483B000AF786006
S315000434400B467B807B88C3F309039BB27A68C3F37C
S315000434500901D36C23F47F7323F003030B43D36472
S315000434600C37BD465DF8047B704700BF80B483B05B
S3150004347000AF78600B46FB707B68FA7802F00102B5
S315000434801202196921F480710A431A610C37BD4688
S315000434905DF8047B704700BF80B483B000AF7860EA
S315000434A039607B683A685A610C37BD465DF8047B1F
S315000434B0704700BF80B483B000AF786039607B6822
S315000434C09A693B681A607B681A6A3B685A607B682B
S315000434D09A6A3B689A607B681A6B3B68DA600C37B9
S315000434E0BD465DF8047B704780B483B000AF786056
S315000434F039607B689A693B681A600C37BD465DF88B
S31500043500047B704780B483B000AF786039607B6811
S315000435109A6A3B681A600C37BD465DF8047B7047AF
S3150004352080B483B000AF78600B46FB70FB78042B45
S315000435300ED0082B17D0012B20D17B681A6D42F4CC
S3150004354000421A657B681A6D22F400521A6520E05F
S315000435507B681A6D22F400421A657B681A6D22F4A0
S3150004356000521A6515E07B681A6D22F400421A654A
S315000435707B681A6D42F400521A650AE07B681A6D7C
S3150004358022F400421A657B681A6D22F400521A6509
S3150004359000BF0C37BD465DF8047B704780B483B02A
S315000435A000AF78600B46FB707B689A6C22F48072DD
S315000435B09A647B68FA78D2B2996C21F0FF010A43C7
S315000435C09A647B689A6C42F480729A640C37BD469E
S315000435D05DF8047B704700BF80B483B000AF7860A9
S315000435E07A6892F8C0316FF3000382F8C0310C3761
S315000435F0BD465DF8047B704780B483B000AF786045
S315000436007A6892F8C03143F0010382F8C0310C376E
S31500043610BD465DF8047B704780B483B000AF786024
S3150004362039607B683A681A640C37BD465DF8047BDA
S31500043630704700BF80B483B000AF786039607B68A0
S315000436403A685A640C37BD465DF8047B704700BF80
S3150004365080B483B000AF786039607B683A681A67D3
S315000436600C37BD465DF8047B704700BF80B483B059
S3150004367000AF78600B46FB70FB7803F00F03DAB2F9
S315000436807B6802F00F02196D21F00F010A431A65D7
S315000436900C37BD465DF8047B704700BF80B483B029
S315000436A000AF78600B46FB70FB7803F00F03DAB2C9
S315000436B07B6802F00F021201196D21F0F0010A4332
S315000436C01A650C37BD465DF8047B704780B483B039
S315000436D000AF78607B68603318460C37BD465DF8EA
S315000436E0047B704780B485B000AF0346FB714FF48A
S315000436F0E573FB81FB79012B02D1FB890433FB8142
S31500043700FB8918461437BD465DF8047B704700BF35
S3150004371080B483B000AF0346FB71084997F90730BC
S315000437205B09FA7902F01F02012000FA02F241F85D
S3150004373023200C37BD465DF8047B704700E100E0AA
S3150004374080B483B000AF0346FB71094997F907308B
S315000437505B09FA7902F01F02012000FA02F2203313
S3150004376041F823200C37BD465DF8047B704700BF43
S3150004377000E100E080B483B000AF03463960FB711A
S3150004378097F90730002B0BDA0D49FB7903F00F0389
S31500043790043B3A68D2B21201D2B20B441A7609E05B
S315000437A0084997F907303A68D2B21201D2B20B44EB
S315000437B083F800230C37BD465DF8047B704700BFD1
S315000437C000ED00E000E100E080B485B000AFEFF367
S315000437D00383BB60BB687B603B1DFB60FB681B8887
S315000437E0C3F308039BB2DBB2103BDBB2DBB25BB2C2
S315000437F018461437BD465DF8047B704780B483B021
S3150004380000AF03463960FB71064B1A6897F9073017
S31500043810DB001A443B681A600C37BD465DF8047B2E
S31500043820704700BF90370B0080B58EB000AF78604C
S3150004383039607B687B6300237B867B6B002B08D017
S315000438403B68002B05D000BF3B681B69002B0AD0E0
S3150004385001E0012358E13B681B691B68B3F5007F4F
S3150004386001D9012350E100237B62DF2387F831303D
S31500043870DF2387F83030DF2387F82F30DF2387F8FC
S315000438802E303B681B789BB2FB84002387F82530D7
S31500043890342387F8243007F1140300221A60043312
S315000438A000221A60043300221A60043300221A60CC
S315000438B00433974BDB6807F1240107F11402084629
S315000438C0114698470346BB85BB8D002B01D0BB8DA3
S315000438D01AE107F12403184617F008FC0346002BE7
S315000438E001D00A2310E17B6B00225A647B6B002211
S315000438F09A647B6B0022DA647B6B00225A637A69D2
S315000439007B6BDA630023FB60814B1B6907F124019F
S3150004391007F10C020846002198473B7B87F83130B3
S3150004392097F9313013F1210F14D097F9312007F1AB
S31500043930100310461946FFF761FF3B681B7D1A46C4
S3150004394097F9313018461146FFF714FF3B691B6897
S315000439507A6B1A606E4B1B6907F1240107F10C029E
S315000439600846012198473B7B87F8303097F9303079
S3150004397013F1210F14D097F9302007F110031046E4
S315000439801946FFF73BFF3B689B7D1A4697F9303093
S3150004399018461146FFF7EEFE3B691B687A6B1A6000
S315000439A05B4B1B6907F1240107F10C02084603214E
S315000439B098473B7B87F82F3097F92F3013F1210F67
S315000439C014D097F92F2007F1100310461946FFF774
S315000439D015FF3B685B7D1A4697F92F30184611464A
S315000439E0FFF7C8FE3B691B687A6B1A60484B1B6974
S315000439F007F1240107F10C020846022198473B7B94
S31500043A0087F82E3097F92E3013F1210F14D097F939
S31500043A102E2007F1100310461946FFF7EFFE3B6808
S31500043A20DB7D1A4697F92E3018461146FFF7A2FE9B
S31500043A303B691B687A6B1A6097F9313013F1210FD1
S31500043A4002D149F640435FE007F12403184617F014
S31500043A5061F97B6B4FF400721A633B681B69002B98
S31500043A6006D03B681B69BB62BB6A1A687B6B1A6328
S31500043A7097F931301846FFF74BFE97F9303013F1BA
S31500043A80210F04D097F930301846FFF741FE786BC2
S31500043A90396801F08FF903467B867B8E002B19D19A
S31500043AA03B68DA687B6B9A633B689A687B6B5A63FC
S31500043AB07B6BDB7A002B09D097F92F3013F1210F9A
S31500043AC004D097F92F301846FFF722FE7B6B114A74
S31500043AD01A6418E097F931301846FFF731FE97F962
S31500043AE030301846FFF72CFE97F92F301846FFF7AB
S31500043AF027FE07F12403184617F0FEF807F12403FE
S31500043B00184617F021FB7B8E18463837BD4680BD14
S31500043B10B4310B004948445380B588B000AF78608F
S31500043B207B68BB610023FB83BB69002B01D10123A6
S31500043B30FB83FB8B002B06D1BB691B6C594A934252
S31500043B4001D00723FB83FB8B002B07D1BB6993F8BA
S31500043B502C30002B02D049F64643FB8300233B61FD
S31500043B60BB691B789BB27B8200237B7434233B7432
S31500043B700023FB604C4B1B6907F1100107F10C0293
S31500043B800846002198473B7BFB75474B1B6907F1A9
S31500043B90100107F10C020846032198473B7BBB75CD
S31500043BA0414B1B6907F1100107F10C02084601217C
S31500043BB098473B7B7B753C4B1B6907F1100107F16A
S31500043BC00C020846022198473B7B3B75FB8B002B76
S31500043BD062D1BB6900221A6497F917301846FFF7B9
S31500043BE0AFFD97F915301846FFF7AAFD97F9163079
S31500043BF01846FFF7A5FD07F11003184617F07CF8E1
S31500043C00BB6900225A7297F9173013F1210F0BD0B2
S31500043C1097F9172007F1080310461946FFF7EEFD3A
S31500043C20BB681B6800221A6097F9153013F1210F3F
S31500043C300BD097F9152007F1080310461946FFF72C
S31500043C40DDFDBB681B6800221A6097F9163013F174
S31500043C50210F0BD097F9162007F1080310461946D1
S31500043C60FFF7CCFDBB681B6800221A6097F9143075
S31500043C7013F1210F0BD097F9142007F1080310460E
S31500043C801946FFF7BBFDBB681B6800221A6007F1E3
S31500043C901003184617F058FAFB8B18462037BD4612
S31500043CA080BD00BF49484453B4310B0080B586B08B
S31500043CB000AFF860B9607A603B60FB683B61002343
S31500043CC0FB823B69002B02D0BB68002B01D1012388
S31500043CD0FB82BB6803F00303002B01D00223FB82A3
S31500043CE0FB8A002B06D13B691B6C184A934201D010
S31500043CF00723FB82FB8A002B07D13B6993F82C3000
S31500043D00002B02D049F64643FB82FB8A002B0CD1DA
S31500043D10386901F06FFA3B695B7A83F00103DBB221
S31500043D20002B02D049F64443FB82FB8A002B07D1C1
S31500043D303869B9687A683B6801F0A2F80346FB82E1
S31500043D40FB8A18461837BD4680BD00BF4948445310
S31500043D5080B586B000AFF860B9607A603B60FB68F6
S31500043D603B610023FB823B69002B02D0BB68002B1E
S31500043D7001D10123FB82BB6803F00303002B01D0AE
S31500043D800223FB82FB8A002B06D13B691B6C1D4A6E
S31500043D90934201D00723FB82FB8A002B07D13B69A0
S31500043DA093F82C30002B02D049F64643FB82FB8A5B
S31500043DB0002B0CD1386901F01DFA3B695B7A83F05C
S31500043DC00103DBB2002B02D049F64443FB82FB8A93
S31500043DD0002B06D13B691B7B002B02D049F64543D9
S31500043DE0FB82FB8A002B07D13869B9687A683B687D
S31500043DF001F0CAF80346FB82FB8A18461837BD460B
S31500043E0080BD00BF4948445380B586B000AFF86012
S31500043E100B467A60FB72FB683B610023FB823B69BD
S31500043E20002B02D07B68002B01D10123FB82FB8A85
S31500043E30002B06D13B691B6C254A934201D007230C
S31500043E40FB82FB8A002B04D1386901F0D3F90346BF
S31500043E50FB82FB8A002B36D1FB7A013B052B2FD83C
S31500043E6001A252F823F000BF813E04008B3E0400F9
S31500043E70C13E0400C13E0400953E04009F3E04007A
S31500043E803B695A6A7B681A601DE03B691A6A7B685B
S31500043E901A6018E03B691A7B7B681A7013E07B682A
S31500043EA01B68B3F5007F02D91723FB820BE07B68FE
S31500043EB01A683B691A633B691A6B3B691A6202E02A
S31500043EC00323FB8200BFFB8A18461837BD4680BD14
S31500043ED04948445380B586B000AFF860B9607A604B
S31500043EE03B60FB683B610023FB823B69002B02D0ED
S31500043EF0BB68002B01D10123FB82FB8A002B06D170
S31500043F003B691B6C124A934201D00723FB82FB8A4E
S31500043F10002B0CD1386901F06DF93B695B7A83F0AB
S31500043F200103DBB2002B02D049F64443FB82FB8A31
S31500043F30002B07D13869B9687A683B6801F0F8FA4A
S31500043F400346FB82FB8A18461837BD4680BD00BF70
S31500043F504948445380B588B002AFF860B9607A60C6
S31500043F603B60FB683B610023FB823B69002B02D06C
S31500043F70BB68002B01D10123FB82FB8A002B06D1EF
S31500043F803B691B6C134A934201D00723FB82FB8ACD
S31500043F90002B0CD1386901F02DF93B695B7A83F06B
S31500043FA00103DBB2002B02D049F64443FB82FB8AB1
S31500043FB0002B0AD197F8203000933869B9687A68DB
S31500043FC03B6801F0E7FA0346FB82FB8A184618377A
S31500043FD0BD4680BD4948445380B58AB004AFF860F5
S31500043FE0B9607A603B60FB683B610023FB823B69F6
S31500043FF0002B02D0BB68002B01D10123FB82BB68D6
S3150004400003F00303002B01D00223FB82FB8A002B5F
S3150004401006D13B691B6C1C4A934201D00723FB82E1
S31500044020FB8A002B07D13B6993F82C30002B02D076
S3150004403049F64643FB82FB8A002B0CD1386901F012
S31500044040D9F83B695B7A83F00103DBB2002B02D01B
S3150004405049F64443FB82FB8A002B0FD13B6A00934B
S3150004406097F82430019397F8283002933869B96891
S315000440707A683B6801F0DAF80346FB82FB8A184645
S315000440801837BD4680BD00BF4948445380B58AB041
S3150004409004AFF860B9607A603B60FB683B6100235B
S315000440A0FB823B69002B02D0BB68002B01D10123A4
S315000440B0FB82BB6803F00303002B01D00223FB82BF
S315000440C0FB8A002B06D13B691B6C1C4A934201D028
S315000440D00723FB82FB8A002B07D13B6993F82C301C
S315000440E0002B02D049F64643FB82FB8A002B0CD1F7
S315000440F0386901F07FF83B695B7A83F00103DBB230
S31500044100002B02D049F64443FB82FB8A002B0FD1D5
S315000441103B6A009397F82430019397F8283002936A
S315000441203869B9687A683B6801F042F90346FB824C
S31500044130FB8A18461837BD4680BD00BF494844531C
S3150004414080B584B000AF78600B46FB707B68BB60BB
S315000441500023FB81FB78B868194600F0FFFA034692
S3150004416083F00103DBB2002B01D01323FB81FB890F
S3150004417018461037BD4680BD80B485B000AF786060
S315000441800023FB817B68002B02D10123FB8103E022
S31500044190054B1A687B681A60FB8918461437BD46B6
S315000441A05DF8047B704700BFE82E0B0080B584B031
S315000441B000AF786039607B68BB600023FB81BB6815
S315000441C0002B02D03B68002B01D10123FB81FB8924
S315000441D0002B06D1BB681B6C294A934201D00723E6
S315000441E0FB81FB89002B45D1B86801F003F803462F
S315000441F0FB81BB681A7A3B681A70BB685A7A3B68BB
S315000442005A70BB689A7A3B689A70BB681A7B3B689B
S315000442101A71BB6893F82C203B685A71BB689A7B69
S315000442203B689A71BB685A693B68DA60BB689A69ED
S315000442303B681A61BB68DA693B685A61BB681A6AEB
S315000442403B689A61BB685A6A3B68DA61BB689A6ADA
S315000442503B681A62BB689A783B681A72BB685A7CD8
S315000442603B685A72BB68DA7B3B68DA71BB68DA7AF8
S315000442703B68DA70FB8918461037BD4680BD00BF1F
S315000442804948445380B586B000AFF860B9607A6097
S31500044290FB683B610023FB823B69002B01D10123B0
S315000442A0FB82FB8A002B06D13B691B6C1C4A93429A
S315000442B001D00723FB82FB8A002B07D13B6993F8C5
S315000442C02C30002B02D049F64643FB82FB8A002B96
S315000442D00CD1386900F08EFF3B695B7A83F00103E9
S315000442E0DBB2002B02D049F64443FB82FB8A002B47
S315000442F006D13B691B7B002B02D049F64543FB8262
S31500044300FB8A002B06D13869B9687A6800F0FCFE8E
S315000443100346FB82FB8A18461837BD4680BD00BF9C
S315000443204948445380B586B000AF012056F0B8F929
S3150004433002233B7200237B60FFF746FA03461A46C4
S315000443403B1D10461946FFF759FA7B681B681B6824
S315000443507B6107F110037869194600F0F3F8FFF75B
S3150004436033FA0346184616F029FE7B69002B09D05A
S315000443707B6993F82C30002B04D0786900F08EFE0C
S3150004438003463B727B695B6B002B08D07B699B6B96
S31500044390FB607B695B6B07F10802104698470120B6
S315000443A056F07CF91837BD4680BD00BF80B586B08F
S315000443B000AF78600B46FB707B681B78FB750023A7
S315000443C03B61FB7D9BB27B8200237B7434233B746D
S315000443D00023FB602C4B1B6907F1100107F10C024B
S315000443E00846022198473B7BBB75FB78002B23D0FC
S315000443F0786800F0AFFC0346002B01D000233EE0B2
S315000444007B68DB6B18460121FEF7C4FE7B68DB6B19
S3150004441018461E49FFF70EF97B6848F27F02DA64F4
S315000444207B68DB6B1846FEF7B3FF97F91630184620
S3150004443016F0C4FD012322E0786800F08BFC0346E5
S31500044440002B01D000231AE07B68DB6B18460021A1
S31500044450FEF7A0FE7B68DB6B18460D49FFF7EAF80A
S315000444607B6848F27F32DA647B68DB6B1846FEF7BA
S315000444708FFF97F91630184616F0A0FD012318464B
S315000444801837BD4680BD00BFB4310B00807FFFFFE7
S31500044490807CFFFF80B588B000AF78607B68DB6BFB
S315000444A01846FEF7CDFEF8617B68DB6B1846FEF70F
S315000444B0D3FEB8617B68DB6B1846FEF7D9FE7861DC
S315000444C03B7B6FF300033B7300233B6107F10C0353
S315000444D0184616F0B3FA3B7B03F00103DBB2002B5C
S315000444E004D0FB6903F01D03FB6103E0FB6903F0E1
S315000444F00503FB61BA6948F27F331340BB617B69EC
S3150004450003F001037B61FB69002B05D07B68DB6B41
S315000445101846F969FEF7B8FEBB69002B05D07B681F
S31500044520DB6B1846B969FEF7BDFE7B69002B05D027
S315000445307B68DB6B18467969FEF7D8FE2037BD46E3
S3150004454080BD00BF80B586B000AF786039600023B7
S31500044550FB607B685B6CFB607B68DB6B1846FEF775
S315000445606FFE78617B68DB6B1846FEF775FE386173
S315000445707B6903F005037B617B68DB6C3A69134056
S315000445803B61FA683B6919047B690B431343FB607F
S31500044590FA68174B1340002B03D0BB7B43F0800310
S315000445A0BB73FB7B03F00103DBB2002B05D07B68F6
S315000445B0DB6B18460F49FFF73DF87B68FA685A64C7
S315000445C03B68FA681A607B69002B05D07B68DB6B55
S315000445D018467969FEF758FE3B69002B05D07B68BF
S315000445E0DB6B18463969FEF75DFE1837BD4680BD9C
S315000445F000007F80807CFFFF80B483B000AF7860CA
S315000446007B6800225A640C37BD465DF8047B70470C
S3150004461080B483B000AF78607B6893F8463023F0AB
S315000446207F03DBB2002B14BF01230023DBB2184641
S315000446300C37BD465DF8047B704700BF80B584B077
S3150004464000AF78600023FB737B68DB6B1846FEF7CC
S3150004465037FE0346002B07D17B6893F8473003F0F7
S315000446600103DBB2002B01D00123FB73FB7B18464D
S315000446701037BD4680BD00BF80B483B000AF7860FC
S315000446807A6892F847306FF3000382F847300C37A4
S31500044690BD465DF8047B704780B483B000AF786094
S315000446A07B6893F8443003F00403DBB2002B14BF99
S315000446B001230023DBB218460C37BD465DF8047BA4
S315000446C0704700BF80B483B000AF78607A6892F810
S315000446D044306FF3820382F844300C37BD465DF8EC
S315000446E0047B704780B483B000AF78607B6893F82E
S315000446F0443003F00103DBB2002B14BF0123002373
S31500044700DBB218460C37BD465DF8047B704700BF24
S3150004471080B483B000AF78607A6892F844306FF35F
S31500044720000382F844300C37BD465DF8047B7047BD
S3150004473080B483B000AF78607B6893F8463023F08A
S315000447407F03DBB2002B14BF01230023DBB2184620
S315000447500C37BD465DF8047B704700BF80B584B056
S3150004476000AF78600B46FB70FB78002B03D06FF02C
S315000447700103FB6002E04FF6FF73FB607B68DB6BB3
S315000447801846F968FEF764FF012318461037BD463C
S3150004479080BD00BF80B586B000AFF8600B467A6076
S315000447A07B810123BB75F86800F0D4FA0346002B1D
S315000447B001D00023BB75BB7D002B0DD0F868FFF735
S315000447C01BFFF86800F05CFA034683F00103DBB2D2
S315000447D0002B01D00023BB75BB7D002B40D0FB68AA
S315000447E0DB6B18467968FEF715FEFB68DA6B7B8986
S315000447F010461946FEF7C0FC7B89262B02D11B4BBB
S315000448003B6102E042F210733B610023FB750AE050
S315000448103B69013B3B610A2000F0C0FAF868FFF7E8
S3150004482087FF0346FB75F868FFF75CFF034683F0D2
S315000448300103DBB2002B08D0FB7D83F00103DBB25E
S31500044840002B02D03B69002BE2D1F868FFF760FF2A
S31500044850FB7D002B02D13B69002B01D10023BB75E4
S31500044860BB7D18461837BD4680BD00BFA086010033
S3150004487080B584B000AF786042F21073FB6006E046
S31500044880FB68013BFB604FF4FA7000F087FA7B6823
S31500044890DB6B1846FEF766FD034683F00103DBB2C5
S315000448A0002B02D0FB68002BEAD1FB68002B01D158
S315000448B0012300E0002318461037BD4680BD00BF23
S315000448C080B584B000AF7860786800F043FA034698
S315000448D0002B01D000235FE07B68DB6B1846FEF7F4
S315000448E029FC7B68DB6B18460021FEF7BFFE7B685C
S315000448F0DB6B18460E21FEF7D1FE786800F0C0F98E
S31500044900034683F00103DBB2002B01D0002343E00E
S315000449107B68DB6B1846FEF75FFE41F2883000F0D9
S315000449203DFA7B68DB6B1846FEF766FE41F288307B
S3150004493000F034FA3B7A6FF300033B720023FB600A
S3150004494007F10803184616F079F83B7A03F00103D9
S31500044950DBB2002B07D07B68DB6B18466FF01D01BA
S31500044960FEF75AFE06E07B68DB6B18466FF005011E
S31500044970FEF752FE7B68DB6B18460949FEF75AFEC2
S315000449807B68DB6B18464FF6FF71FEF761FE7B68AA
S3150004499048F27F32DA64012318461037BD4680BDDB
S315000449A0807CFFFF80B582B000AF78607B68DB6BEC
S315000449B01846FEF731FC034618460837BD4680BD47
S315000449C080B586B000AF78603B7B6FF300033B7322
S315000449D000233B6107F10C03184616F02FF83B7BC6
S315000449E003F00103DBB2002B01D1012319E01923E3
S315000449F07B6102E07B69013B7B617B69002B0AD00A
S31500044A007B68DB6B1846FEF7F1FB034683F0010374
S31500044A10DBB2002BEED17B69002B14BF01230023EC
S31500044A20DBB218461837BD4680BD00BF80B582B0DC
S31500044A3000AF786039607B68DB6B1846FEF7CAFB0B
S31500044A4002463B681A600837BD4680BD80B582B011
S31500044A5000AF7860786800F029F90346002B07D088
S31500044A607B68DB6B18460021FEF700FD012300E09E
S31500044A70002318460837BD4680BD00BF80B582B006
S31500044A8000AF78603960786800F064F90346002B5B
S31500044A9001D000230CE07B68DB6B18460121FEF78E
S31500044AA0E5FC7B68DB6B18463968FEF7F5FC0123E9
S31500044AB018460837BD4680BD80B582B000AF786021
S31500044AC00B467B80786800F045F90346002B01D03D
S31500044AD0002307E07B68DA6B7B8810461946FEF7ED
S31500044AE0ABFC012318460837BD4680BD80B582B0AD
S31500044AF000AF78600B46FB707B68DA6BFB78104678
S31500044B001946FEF70DFD0837BD4680BD80B584B055
S31500044B1000AF78600B46FB700123FB73786800F0E6
S31500044B2019F90346002B01D00023FB737B68DA6B6B
S31500044B30FB7810461946FEF7EBFBFB7B184610374D
S31500044B40BD4680BD80B582B000AF786039607B68B1
S31500044B50DB6B18463968FEF7C7FC0837BD4680BDCF
S31500044B6080B582B000AF786039607B68DB6B18462D
S31500044B703968FEF7C7FC0837BD4680BD80B582B0EC
S31500044B8000AF786039607B68DB6B18463968FEF7DE
S31500044B9091FC0837BD4680BD80B58AB000AF786009
S31500044BA0396000237B61FF2387F823300023FB76DB
S31500044BB03B7B6FF300033B7300233B6107F10C035C
S31500044BC0184615F03BFF3B69FB613B681A68FB69B5
S31500044BD09A4203D23B681B68FB6102E03B68FA69B0
S31500044BE01A60264B9B6907F1140200201146984768
S31500044BF003463B833B8B002B01D000233AE07B69C1
S31500044C005A0AFB699A4201D9002333E04FF4007330
S31500044C107B627A697B6AB2FBF3F2FB699A4294BFC0
S31500044C2001230023FB76FB7E002B06D07B6A9B08C0
S31500044C3087F823307B6A5B087B627B6A012B02D987
S31500044C40FB7E002BE5D197F82330FF2B11D07A6930
S31500044C507B6A5B00B2FBF3F23B681A6097F8233079
S31500044C607868194600F038F80346002B01D0012372
S31500044C7000E0002318462837BD4680BDAC320B0041
S31500044C8080B582B000AF7860786800F03FF80346DC
S31500044C90002B01D0002305E07B68DB6B1846FEF78A
S31500044CA087FB012318460837BD4680BD80B582B010
S31500044CB000AF7860786800F029F80346002B01D02D
S31500044CC0002305E07B68DB6B1846FEF77FFB0123B8
S31500044CD018460837BD4680BD80B582B000AF7860FF
S31500044CE00B46FB70786800F011F80346002B01D0E0
S31500044CF0002307E07B68DA6BFB7810461946FEF75B
S31500044D004DFC012318460837BD4680BD80B584B0E6
S31500044D1000AF786042F21073FB6002E0FB68013B6F
S31500044D20FB607B68DB6B1846FEF75EFB034683F08D
S31500044D300103DBB2002B02D0FB68002BEED1FB682B
S31500044D40002B01D1012300E0002318461037BD468D
S31500044D5080BD00BF80B584B000AF786042F21073A6
S31500044D60FB6006E0FB68013BFB604FF4FA7000F061
S31500044D7015F87B68DB6B1846FEF7DEFA0346002B54
S31500044D8002D0FB68002BEDD1FB68002B01D1012377
S31500044D9000E0002318461037BD4680BD80B582B0BA
S31500044DA000AF78607868012116F070F80837BD46C0
S31500044DB080BD00BF80B584B000AF78603960002341
S31500044DC0FB813B681A787B681A703B685A787B6863
S31500044DD05A703B689A787B689A703B685A687B6815
S31500044DE05A607B6800225A727B6800229A727B683A
S31500044DF00022DA727B68002283F82C207868FFF799
S31500044E005FFD034683F00103DBB2002B02D049F6B3
S31500044E104043FB814FF496704FF47A7116F036F8DE
S31500044E20FB89002B0FD17B685B78012B0BD178684B
S31500044E30FFF7C6FD034683F00103DBB2002B02D065
S31500044E4049F64143FB81FB89002B0BD1786800F0BE
S31500044E502BFC034683F00103DBB2002B02D049F698
S31500044E604043FB81FB89002B05D17868FFF712FBD1
S31500044E707B6801225A72FB8918461037BD4680BDED
S31500044E8080B588B000AFF860B9607A603B600023F3
S31500044E907B75FB68002283F82C20FB689B7A002B29
S31500044EA002D07B68BB6105E0FB681B6A7A6802FB7B
S31500044EB003F3BB613B68012B02D91223FB8301E098
S31500044EC01123FB83F868FFF7D3FC0346002B01D0BC
S31500044ED007237B757B7D002B15D1F8683968FFF7AE
S31500044EE0CDFDFB681B6BF86839681A46BB6801F090
S31500044EF00BFC0346002B04D0FB68012283F82C200C
S31500044F0001E00B237B757B7D002B27D1F868FFF727
S31500044F1073FBFB681B6B9BB2F8681946FFF7CCFD65
S31500044F20FB8BF8681946BA69FFF734FC034683F02D
S31500044F300103DBB2002B01D001237B75FB8B122B03
S31500044F4006D107F11003F8681946FFF709FE05E0D4
S31500044F5007F11003F8681946FFF7F4FD7B7D002B73
S31500044F6002D10023FB8209E0FB68002283F82C208F
S31500044F70F86801F005FD49F64343FB82FB8A1846AF
S31500044F802037BD4680BD00BF80B588B000AFF8604D
S31500044F90B9607A603B6000237B75FB68002283F866
S31500044FA02C20FB681B7B002B01D008237B75FB6838
S31500044FB09B7A002B02D07B68BB6105E0FB681B6A09
S31500044FC07A6802FB03F3BB613B68012B02D9192300
S31500044FD0FB7701E01823FB77F868FFF749FC0346E3
S31500044FE0002B01D007237B757B7D002B15D1F86838
S31500044FF03968FFF743FDFB681B6BF86839681A4686
S31500045000BB6801F01FFC0346002B04D0FB68012299
S3150004501083F82C2001E00B237B757B7D002B28D1A4
S31500045020F868FFF7E9FAFB681B6B9BB2F868194648
S31500045030FFF742FDFB7F9BB2F8681946BA69FFF792
S31500045040A9FB034683F00103DBB2002B01D0012345
S315000450507B75FB7F192B06D107F11003F8681946F7
S31500045060FFF77EFD05E007F11003F8681946FFF720
S3150004507069FD7B7D002B02D10023FB8208E0FB68DF
S31500045080002283F82C20F86801F07AFC1823FB82AE
S31500045090FB8A18462037BD4680BD00BF80B584B064
S315000450A000AF78600623FB737868FFF7B1FA03460E
S315000450B0002B09D00523FB737B68002283F82C2080
S315000450C0786801F05DFC1AE07868FFF7E5FA0346B4
S315000450D0002B14D07868FFF7F5FA786801F050FCD5
S315000450E0034683F00103DBB2002B02D00523FB73D6
S315000450F001E00423FB737B68002283F82C20FB7BEE
S3150004510018461037BD4680BD80B58AB000AFF8603A
S31500045110B9607A600023FB82FB689A6A7B689A42CC
S3150004512001D2192361E0FB689B7A002B07D0BB6888
S315000451307B62BA687B681344013B3B620DE0FB6803
S315000451401B6BBA6802FB03F37B62BA687B68134481
S31500045150FA68126B02FB03F33B62FB681B7A002BB3
S3150004516006D12323FB832423BB830123BB6106E0EF
S315000451702023FB832123BB834FF0FF33BB61F868F5
S31500045180FFF776FB0346002B02D049F64643FB8223
S31500045190FB8A002B28D1FB8BF86819467A6AFFF73D
S315000451A0F9FA034683F00103DBB2002B01D019237D
S315000451B01BE0BB8BF86819463A6AFFF7EBFA03461D
S315000451C083F00103DBB2002B01D019230DE0F8684C
S315000451D02621BA69FFF7DEFA034683F00103DBB240
S315000451E0002B01D0192300E0FB8A18462837BD4658
S315000451F080BD00BF80B582B000AF7860786800F0EB
S315000452001FFC7B685B78012B0BD17868FFF7D8FB12
S31500045210034683F00103DBB2002B02D07B68002235
S315000452205A72002318460837BD4680BD80B58AB039
S3150004523000AFF860B9607A603B600023BB6100236D
S3150004524087F8233041F63543FB8497F83430012B35
S315000452500CD13B6B1B68FB61FB681B6B3B61FB69F9
S31500045260012B10D947F63543FB840CE00123FB617F
S315000452703B6B1B68002B03D1FB681B6B3B6102E095
S315000452803B6B1B683B61F868FFF7F2FA0346002B99
S3150004529002D0072387F8233097F82330002B11D147
S315000452A03B69F868F9691A46BB6801F02DFA0346AA
S315000452B0002B04D0FB68012283F82C2002E00B2388
S315000452C087F8233097F82330002B5AD13B699BB2D9
S315000452D0F8681946FFF7F0FBF868F969FFF7CEFBA3
S315000452E0F868FFF789F93B6B1B68B3F5007F02D1B9
S315000452F03B6B00221A603B6B1B689BB2C3F308032B
S315000453009AB23B8B62F308033B837B68DBB203F000
S315000453100703DAB2FB7E62F30613FB7697F83430A2
S3150004532003F00103DAB2FB7E62F3C303FB7697F85C
S31500045330383003F00103DAB2FB7E62F38203FB76B4
S315000453403B68C3F31002BB6962F35923BB61FB7E5E
S315000453506FF3C713FB76BB69FA8CF86811461A46D5
S31500045360FFF718FA034683F00103DBB2002B02D0E1
S31500045370012387F8233007F11403F8681946FFF769
S31500045380E1FB97F82330002B02D10023BB8409E00C
S31500045390FB68002283F82C20F86801F0F1FA49F63C
S315000453A04343BB84BB8C18462837BD4680BD00BF2B
S315000453B080B58CB000AFF860B9607A603B600023BA
S315000453C0BB61002387F82B3040F63543FB8597F8FD
S315000453D03C30012B0BD1BB6B3B62FB681B6B7B62C6
S315000453E03B6A012B0ED946F63543FB850AE00123B9
S315000453F03B62BB6B002B03D1FB681B6B7B6201E03A
S31500045400BB6B7B62F868FFF733FA0346002B02D0C6
S31500045410072387F82B3097F82B30002B10D1F86828
S31500045420396A7A6ABB6801F00DFA0346002B04D088
S31500045430FB68012283F82C2002E00B2387F82B302B
S3150004544097F82B30002B5DD17B6A9BB2F86819461E
S31500045450FFF732FBF868396AFFF710FBF868FFF7C5
S31500045460CBF8BB6BFB61BB6BB3F5007F01D10023AB
S31500045470FB61FB68012283F82C20FB699BB2C3F312
S3150004548008039AB23B8B62F308033B837B68DBB267
S3150004549003F00703DAB2FB7E62F30613FB7697F892
S315000454A03C3003F00103DAB2FB7E62F3C303FB76FE
S315000454B097F8403003F00103DAB2FB7E62F382030D
S315000454C0FB763B68C3F31002BB6962F35923BB61E5
S315000454D0FB7E43F08003FB76BB69FA8DF8681146C0
S315000454E01A46FFF757F9034683F00103DBB2002B94
S315000454F002D0012387F82B3007F11403F868194604
S31500045500FFF720FB97F82B30002B02D10023BB8535
S3150004551008E0FB68002283F82C20F86801F030FAD2
S315000455201823BB85BB8D18463037BD4680BD00BFEA
S3150004553080B586B000AFF860B9607A603B6000233E
S315000455403B617B68DBB203F00703DAB2FB7C62F3F0
S315000455500613FB74FB7C6FF3C713FB74FB7C6FF3BE
S31500045560C303FB743B68C3F310023B6962F359231C
S315000455703B6107F11003F868194600F045F8034645
S31500045580FB823A7CBB681A70FB8A18461837BD46FC
S3150004559080BD00BF80B586B000AFF860B9607A60A0
S315000455A03B6000233B617B68DBB203F00703DAB29E
S315000455B0FB7C62F30613FB74FB7C43F08003FB74F1
S315000455C097F8203003F00103DAB2FB7C62F3C303DD
S315000455D0FB743B68C3F310023B6962F359233B61D6
S315000455E0BB681B783B7407F11003F868194600F092
S315000455F00BF80346FB823A7CBB681A70FB8A184692
S315000456001837BD4680BD00BF80B586B000AF786050
S3150004561039600023FB6000237B757868FEF7ECFF96
S3150004562034237B823B681B687A8A786811461A465B
S31500045630FFF7B0F8034683F00103DBB2002B01D079
S3150004564001237B757B7D002B20D107F10C03786841
S315000456501946FFF777FA3B68DB7823F07F03DBB262
S31500045660002B09D03B68DB7803F00803DBB2002B80
S3150004567002D03A7B3B681A703B68DB7823F07F03E1
S31500045680DBB2002B02D13A7B3B681A707B7D002B80
S3150004569002D10023FB8202E049F64343FB82FB8AE4
S315000456A018461837BD4680BD80B582B000AF786015
S315000456B078688021FFF710FB034683F00103DBB211
S315000456C0002B01D0002377E078680121FFF70EFA5A
S315000456D0786800210022FFF75DF8322001F0B2F964
S315000456E0786800F06DF8786800F07EF8034683F079
S315000456F00103DBB2002B01D000235DE0786800F0E3
S315000457009FF9786800F0DAFD034683F00103DBB203
S31500045710002B01D000234FE0786800F0F3FD034628
S3150004572083F00103DBB2002B01D0002344E0786848
S3150004573000F018FE034683F00103DBB2002B01D010
S31500045740002339E0786800F02DFE034683F0010358
S31500045750DBB2002B01D000232EE0786800F050FE67
S31500045760034683F00103DBB2002B01D0002323E0C0
S31500045770786800F011FF034683F00103DBB2002BC7
S3150004578001D0002318E0786800F072F9034683F02C
S315000457900103DBB2002B01D000230DE07B68DB7A2A
S315000457A0002B04D078680121FFF7B0F903E078688C
S315000457B00021FFF7ABF9012318460837BD4680BD23
S315000457C080B586B002AF78600823FB7307F10F0239
S315000457D0002300937868114600220623FFF7DAFEB9
S315000457E01037BD4680BD00BF80B584B000AF786079
S315000457F0786800F0D9F80346002B05D07B680022B0
S315000458001A720123FB730DE0786800F011F8034661
S31500045810002B05D07B6801221A720123FB7301E079
